:100000000C942A000C9434000C9434000C943400AA
:100010000C9434000C9434000C9434000C94340090
:100020000C9434000C9434000C9434000C94340080
:100030000C9434000C9434000C9434000C94340070
:100040000C9434000C9434000C9434000C94340060
:100050000C94340011241FBECFE5D8E0DEBFCDBF25
:100060000E9436000C9451000C9400008FE08ABB73
:1000700081E08BBB61E048EC50E06BBB20E030E0FE
:100080000DC0FA013197F1F70197D9F78BB3880FBB
:100090008BBB2F5F3F4F2430310579F384EC99E01F
:0600A000F0CFF894FFCF41
:00000001FF
