:100000000C942A000C9434000C9434000C943400AA
:100010000C9434000C9434000C9434000C94340090
:100020000C9434000C9434000C9434000C94340080
:100030000C9434000C9434000C9434000C94340070
:100040000C9434000C9434000C9434000C94340060
:100050000C94340011241FBECFE5D8E0DEBFCDBF25
:100060000E9436000C9479000C9400008FE08ABB4B
:1000700081E08BBB24EC39E048EC50E005C0CA01BC
:100080000197F1F72150304021153105C1F7D8987B
:10009000D99A84EC99E0FA013197F1F70197D9F7F1
:1000A000D998DA9A84EC99E0FA013197F1F701973F
:1000B000D9F7DA98DB9A84EC99E0FA013197F1F7F5
:1000C0000197D9F7DB98DA9A84EC99E0FA01319735
:1000D000F1F70197D9F7DA98D99A84EC99E0FA0107
:1000E0003197F1F70197D9F7C198C09A24EC39E01C
:0600F000C6CFF894FFCF1B
:00000001FF
